:020000020000FC
:040000000C94340028
:1000680008E00EBF0FEF0DBF0FE007B90CEF0AB99C
:100078000FE304B900E008B900E00BB900E005B9E6
:10008800D1E0C0E00CE3099302E4099305EA09937F
:1000980005EA099305EA099309E9099302E4099332
:1000A8000CE308830E945A000C945600D1E0C0E08B
:1000B80019910E949500409A0E949D0040981991BC
:1000C8000E949500419A0E949D00419819910E94B2
:1000D8009500429A0E949D00429819910E949500AD
:1000E800439A0E949D00439819910E9495005A9A3C
:1000F8000E949D005A9819910E9495005B9A0E944F
:100108009D005B9819910E9495005C9A0E949D0041
:100118005C9818810E9495005D9A0E949D005D98E8
:1001280008955E985F98289829982A982B982C9873
:100138002D9810FD5E9A10FF5E9811FD5F9A11FFD1
:100148005F9812FD289A12FF289813FD299A13FF29
:10015800299814FD2A9A14FF2A9815FD2B9A15FF41
:100168002B9816FD2C9A16FF2C9817FD2D9A17FF21
:040178002D98089521
:00000001FF
