:020000020000FC
:0200000033C00B
:0200400035C0C9
:1000680008E00EBF0FEF0DBF4AE050E005E005BD08
:10007800789401E000936E0000E006BD0FE007B938
:100088000CEF0AB90FE304B900917C0000640093F7
:100098007C0000917A00076800937A00F4D0DAD0E7
:1000A800E2D01DC0451714F05395189555270F93A6
:1000B8000FB70F93E8D0D7D001D00DC0F1E0E0E042
:1000C80088941127151519F013950191FBCF00811C
:1000D8000429008308950F910FBF0F91189517D029
:1000E80004D0B8D025D039D0FACF00917C000E7F4B
:1000F800046200937C0000917A00006400937A0007
:1001080000917A0006FDFCCF3091790008950091A6
:100118007C00056200937C0000917A0000640093E3
:100128007A0000917A0006FDFCCF209179000895AD
:10013800353C38F43E3340F0293848F4243650F042
:1001480008956091010008956091020008956091FA
:1001580003000895609104000895D1E0C0E009917A
:100168004FD0409A56D055D054D053D052D051D0B9
:100178004098099145D0419A4CD04BD04AD049D0AB
:1001880048D047D0419809913BD0429A42D041D0BB
:1001980040D03FD03ED03DD04298099131D0439ACB
:1001A80038D037D036D035D034D033D043980991B1
:1001B80027D05A9A2ED02DD02CD02BD02AD029D067
:1001C8005A9809911DD05B9A24D023D022D021D0EF
:1001D80020D01FD05B98099113D05C9A1AD019D0FF
:1001E80018D017D016D015D05C98088109D05D9A20
:1001F80010D00FD00ED00DD00CD00BD05D98089534
:100208005E985F98289829982A982B982C982D986A
:10021800089500FD5E9A00FF5E9801FD5F9A01FF58
:100228005F9802FD289A02FF289803FD299A03FF88
:10023800299804FD2A9A04FF2A9805FD2B9A05FFA0
:100248002B9806FD2C9A06FF2C9807FD2D9A07FF80
:100258002D980895220E00270B5F201A330E0027D1
:100268000B5F301A0895422C532C07E0402250228D
:10027800889401E01127141519F0000F1395FBCF8E
:100288004424400E0895F1E0E0E000270193019333
:0E029800019301930193019301930083089554
:00000001FF
