:020000020000FC
:0200000033C00B
:020040003AC0C4
:1000680008E00EBF0FEF0DBF23E030E005E005BD4F
:10007800789401E000936E0000E006BD0FE007B938
:100088000CEF0AB90FE304B9D1E0C0E000E009932E
:1000980000E0099300E0099300E0099300E0099368
:1000A80000E0099300E0099300E00883A4C0231747
:1000B80014F03395189533270F930FB70F93F1E08A
:1000C800E0E000810395019300810395019300818D
:1000D8000395019300810395019300810395019392
:1000E8000081039501930081039501930081039595
:1000F80001930F910FBF0F911895D1E0C0E00991BE
:100108004FD0409A56D055D054D053D052D051D019
:100118004098099145D0419A4CD04BD04AD049D00B
:1001280048D047D0419809913BD0429A42D041D01B
:1001380040D03FD03ED03DD04298099131D0439A2B
:1001480038D037D036D035D034D033D04398099111
:1001580027D05A9A2ED02DD02CD02BD02AD029D0C7
:100168005A9809911DD05B9A24D023D022D021D04F
:1001780020D01FD05B98099113D05C9A1AD019D05F
:1001880018D017D016D015D05C98088109D05D9A80
:1001980010D00FD00ED00DD00CD00BD05D98089594
:1001A8005E985F98289829982A982B982C982D98CB
:1001B800089500FD5E9A00FF5E9801FD5F9A01FFB9
:1001C8005F9802FD289A02FF289803FD299A03FFE9
:1001D800299804FD2A9A04FF2A9805FD2B9A05FF01
:1001E8002B9806FD2C9A06FF2C9807FD2D9A07FFE1
:0C01F8002D98089510E081DFFDDFFDCFA1
:00000001FF
