:020000020000FC
:0200000033C00B
:0200400039C0C5
:1000680008E00EBF0FEF0DBF00E80FBF00E006BDB0
:1000780005E005BD01E000936E000FE007B90CEF45
:100088000AB90FE304B9D1E0C0E000E1099300E246
:10009800099300E1099300E2099300E1099300E262
:1000A800099300E1099300E2088310C00F930FB78A
:1000B8000F9308810F93F1E0E0E00081039501932D
:1000C8000F9108830F910FBF0F91189501D0FECFA4
:1000D800D1E0C0E019914FD0409A56D055D054D0B5
:1000E80053D052D051D04098199145D0419A4CD014
:1000F8004BD04AD049D048D047D0419819913BD0ED
:10010800429A42D041D040D03FD03ED03DD04298D4
:10011800199131D0439A38D037D036D035D034D031
:1001280033D04398199127D05A9A2ED02DD02CD05D
:100138002BD02AD029D05A9819911DD05B9A24D057
:1001480023D022D021D020D01FD05B98199113D072
:100158005C9A1AD019D018D017D016D015D05C9840
:10016800188109D05D9A10D00FD00ED00DD00CD0C8
:100178000BD05D9808955E985F98289829982A98DA
:100188002B982C982D98089510FD5E9A10FF5E9874
:1001980011FD5F9A11FF5F9812FD289A12FF2898A7
:1001A80013FD299A13FF299814FD2A9A14FF2A98F7
:1001B80015FD2B9A15FF2B9816FD2C9A16FF2C98D7
:0A01C80017FD2D9A17FF2D980895DA
:00000001FF
