:020000020000FC
:0200000033C00B
:0200400044C0BA
:1000680008E00EBF0FEF0DBF23E030E005E005BD4F
:10007800789401E000936E0000E006BD0FE007B938
:100088000CEF0AB90FE304B900917C0000640093F7
:100098007C0000917A00076800937A00D1E0C0E004
:1000A80000E0099300E0099300E0099300E0099358
:1000B80000E0099300E0099300E0099300E0088359
:1000C8000CC0231714F03395189533270F930FB7E7
:1000D8000F930F910FBF0F91189518D004D028D007
:1000E8003CD0B9D0FACF00917C000E7F0462009317
:1000F8007C0000917A00006400937A0000917A00F5
:1001080006FD0C94820050917900089500917C00BE
:10011800056200937C0000917A00006400937A00E5
:1001280000917A0006FD0C9494004091790008959E
:10013800553C38F45E3340F0493848F4443650F0C2
:1001480008957091010008957091020008957091CA
:1001580003000895709104000895D1E0C0E009916A
:1001680050D07883409A56D055D054D053D052D0DE
:1001780051D04098099145D0419A4CD04BD04AD0A3
:1001880049D048D047D0419809913BD0429A42D0B3
:1001980041D040D03FD03ED03DD04298099131D097
:1001A800439A38D037D036D035D034D033D043986E
:1001B800099127D05A9A2ED02DD02CD02BD02AD0C6
:1001C80029D05A9809911DD05B9A24D023D022D0E7
:1001D80021D020D01FD05B98099113D05C9A1AD0F7
:1001E80019D018D017D016D015D05C98088109D02E
:1001F8005D9A10D00FD00ED00DD00CD00BD05D98DA
:1002080008955E985F98289829982A982B982C9892
:100218002D98089500FD5E9A00FF5E9801FD5F9A93
:1002280001FF5F9802FD289A02FF289803FD299A8A
:1002380003FF299804FD2A9A04FF2A9805FD2B9AA2
:1002480005FF2B9806FD2C9A06FF2C9807FD2D9A82
:0802580007FF2D98089510E046
:00000001FF
