:020000020000FC
:0200000033C00B
:0200400037C0C7
:1000680008E00EBF0FEF0DBF4AE050E005E005BD08
:10007800789401E000936E0000E006BD0FE007B938
:100088000CEF0AB90FE304B900917C0000640093F7
:100098007C0000917A00076800937A0063E01DD124
:1000A80098D1D3D0D8D013C0451710F053951895D0
:1000B80055270F930FB70F9310D131D01AD161D1B3
:1000C80005D1CDD0F5D00F910FBF0F91189516D04F
:1000D80003D0BBD03DD0FBCF00917C000E7F0462E3
:1000E80000937C0000917A00006400937A000091EC
:1000F8007A0006FDFCCF30917900089500917C00CC
:10010800056200937C0000917A00006400937A00F5
:1001180000917A0006FDFCCF209179000895353CC6
:1001280038F43E3348F0293858F4243668F00895F6
:100138006230E9F361E008956130C9F362E008953F
:100148006430A9F363E00895633089F364E00895A7
:10015800D1E0C0E009914FD0409A56D055D054D044
:1001680053D052D051D04098099145D0419A4CD0A3
:100178004BD04AD049D048D047D0419809913BD07C
:10018800429A42D041D040D03FD03ED03DD0429854
:10019800099131D0439A38D037D036D035D034D0C1
:1001A80033D04398099127D05A9A2ED02DD02CD0ED
:1001B8002BD02AD029D05A9809911DD05B9A24D0E7
:1001C80023D022D021D020D01FD05B98099113D002
:1001D8005C9A1AD019D018D017D016D015D05C98C0
:1001E800088109D05D9A10D00FD00ED00DD00CD058
:1001F8000BD05D9808955E985F98289829982A985A
:100208002B982C982D98089500FD5E9A00FF5E9813
:1002180001FD5F9A01FF5F9802FD289A02FF289866
:1002280003FD299A03FF299804FD2A9A04FF2A98B6
:1002380005FD2B9A05FF2B9806FD2C9A06FF2C9896
:1002480007FD2D9A07FF2D980895220E230E0027EB
:100258000B5F201A0895322C07E730220895F1E049
:10026800E0E000E703211127889406958894069515
:100278008894069588940695011719F0819113952D
:10028800FBCF07E00321112781E0011721F08894B3
:10029800880F1395FACFD1E0C8E00991139503159B
:1002A800D1F2711708F0F9CF0081082B0083089567
:1002B800F1E0E8E01127019113950191401621F032
:1002C80013951717D0F30895CBDE089500814314D2
:1002D80009F008957395BFDF0895F1E0E0E0002785
:1002E8000193019301930193019301930193008377
:1002F8000895D1E0C8E00881102F6330C9F1643057
:10030800A1F0007F889406950695069506956130BC
:10031800A9F0623001F110E00881499288810993BF
:10032800082F13951717D0F308950F70073009F4A5
:100338000FEF0395107F102B412EEDCF003009F4FD
:1003480008E00A958894000F000F000F000F1F7037
:10035800102B412EE0CF073009F40FEF0395889456
:10036800000F000F000F000F1F70102B412ED3CF6E
:100378000F70003009F408E00A95107F102B412E09
:10038800CACFB1E0A0E090E0D1E0C8E010E0099168
:10039800802F007F8894069506950695069509177F
:1003A80071F4082F077081E0003031F00000889464
:1003B8000A95880FF9CF00000C91082B0C93139520
:1003C800171728F3000093951D919830E8F2000064
:1003D800089573E0D1E0C8E000E0099301E00993D3
:0603E80002E00883089505
:00000001FF
